:1000000002006932FFFFFFFFFFFFFF32FFFFFFFF2C
:10001000FFFFFF32FFFFFFFFFFFFFF32FFFFFFFF8A
:10002000FFFFFF32FFFFFFFFFFFFFF32FFFFFFFF7A
:10003000FFFFFF0212D6FFFFFFFFFF32FFFFFFFFB0
:10004000FFFFFF020100FFFFFFFFFF32FFFFFFFF87
:10005000FFFFFF020180FFFFFFFFFF32FFFFFFFFF7
:10006000FFFFFF0212D90203FF75812B122727E53C
:1000700082600302006679ABE94400601B7A01905C
:100080002780788875923DE493F2A308B8000205B2
:1000900092D9F4DAF27592FFE478FFF6D8FD020007
:1000A000C57800E84400600A790075923CE4F309E1
:1000B000D8FC7888E84401600C7902903C00E4F0B8
:1000C000A3D8FCD9FA020066FFFFFFFFFFFFFFFF86
:1000D000FFFFFFFFFFFFFFFFFFFFFFFFFFFFFFFF30
:1000E000FFFFFFFFFFFFFFFFFFFFFFFFFFFFFFFF20
:1000F000FFFFFFFFFFFFFFFFFFFFFFFFFFFFFFFF10
:100100000212DAFF02131CFF32FFFFFF021354FF3B
:10011000021332FF02136AFF32FFFFFF32FFFFFFBD
:100120000213A4FF02138CFF32FFFFFF32FFFFFF19
:1001300032FFFFFF32FFFFFF32FFFFFF32FFFFFF03
:1001400032FFFFFF32FFFFFF32FFFFFF32FFFFFFF3
:1001500032FFFFFF32FFFFFF32FFFFFF32FFFFFFE3
:1001600032FFFFFF32FFFFFF32FFFFFF32FFFFFFD3
:1001700032FFFFFF32FFFFFF32FFFFFF32FFFFFFC3
:1001800032FFFFFF32FFFFFF32FFFFFF32FFFFFFB3
:1001900032FFFFFF32FFFFFF32FFFFFF32FFFFFFA3
:1001A00032FFFFFF32FFFFFF32FFFFFF32FFFFFF93
:1001B0000213BAFF022830FFFFFFFFFFFFFFFFFF20
:1001C000FFFFFFFFFFFFFFFFFFFFFFFFFFFFFFFF3F
:1001D000FFFFFFFFFFFFFFFFFFFFFFFFFFFFFFFF2F
:1001E000FFFFFFFFFFFFFFFFFFFFFFFFFFFFFFFF1F
:1001F000FFFFFFFFFFFFFFFFFFFFFFFFFFFFFFFF0F
:10020000FFFFFFFFFFFFFFFFFFFFFFFFFFFFFFFFFE
:10021000FFFFFFFFFFFFFFFFFFFFFFFFFFFFFFFFEE
:10022000FFFFFFFFFFFFFFFFFFFFFFFFFFFFFFFFDE
:10023000FFFFFFFFFFFFFFFFFFFFFFFFFFFFFFFFCE
:10024000FFFFFFFFFFFFFFFFFFFFFFFFFFFFFFFFBE
:10025000FFFFFFFFFFFFFFFFFFFFFFFFFFFFFFFFAE
:10026000FFFFFFFFFFFFFFFFFFFFFFFFFFFFFFFF9E
:10027000FFFFFFFFFFFFFFFFFFFFFFFFFFFFFFFF8E
:10028000AF82C2B79001F4C007120AB0D0078F0640
:100290001FEE24FF5016D2B79000C8C007120AB054
:1002A000C2B79000C8120AB0D00780E29000FA02EC
:1002B0000AB0AC82AD83AEF0FF0000000000000089
:1002C00000000000000000000090E6CEEFF000000B
:1002D000000000000000000000000000000090E6A8
:1002E000CFEEF00000000000000000000000000061
:1002F00000000090E6D0EDF00000000000000000DB
:10030000000000000000000090E6D1ECF0000000CA
:100310000000000000000000000000000022AC828D
:10032000AD83AEF0FFE5BB20E71200000000000047
:100330000000000000000000000080E990E6047466
:1003400080F000000000000000000000000000003D
:10035000000090E6047482F000000000000000003D
:10036000000000000000000090E604E4F00000003F
:100370000000000000000000000000000090E68384
:100380007412F07432F07B00EB04FAFB70FA8C828A
:100390008D838EF0EF1202B200000000000000001A
:1003A000000000000000000075BB04000000000019
:1003B00000000000000000000000002290E6A3E022
:1003C000FF20E30D90E6907404F090E691E4F08055
:1003D000EB903C56E02401F0A3E03400F02290F0D2
:1003E000007401F090F001F4F090F002E4F090F06D
:1003F0000314F090E690E4F090E6917404F022C2C9
:1004000020C224C225C221C222C223C228C22990EE
:100410003C5BE4F0903C5CF0A3F0903C5EF0121C7E
:10042000661216037582011202809003E8120AB068
:10043000903FA57402F0903F1D7407F0903C02E4D9
:10044000F090E678E05410C4540FFF903C01742003
:100450004FF0E013922A903C00E433F0D2E8D2DD72
:1004600090E668E0FF74084FF090E65EE0FF7403EA
:100470004FF0121DB375820112141ED2AF90E680A8
:10048000E0FF20E105D22B120A2E90E680E0FF74F7
:10049000F75FF0538EF8758202120280903C54E4AC
:1004A000F0A3F0903C56F0A3F0903C58F0903C59EB
:1004B000F0903C5AF0903C63F0903C64F0903C54D7
:1004C000E0FEA3E0FF903C5474012EF0E43FA3F063
:1004D0007E00530780EE4FB40100922A92B7903C01
:1004E00054E0FEA3E0FFBEFF36BFFF332022099099
:1004F0003C51E02401F08005903C51E4F0202809B3
:10050000903C52E02401F08005903C52E4F0202918
:1005100009903C53E02401F08005903C53E4F090B6
:100520003C51E0FF24F5502E903C51E4F090E65F02
:10053000E0FFBF0202800690E65F7402F090E65D85
:10054000E0FFBF0102800F90E65D7401F090E6B518
:10055000E0FF74014FF0903C52E0FF24F5501790FB
:100560003C52E4F05391BF90E6617401F090E6F3E1
:10057000E0FF747F5FF0903C53E0FF24F5500E9055
:100580003C53E4F05391BF90E6617402F0302107D0
:1005900012063CC221D2202022030204BDA220E484
:1005A00033FFBF010280030204BDC222C220E4B5B2
:1005B000080280117403B5080280337404B5080280
:1005C00080610204BD903C09E0FF903C0AE0F50C1C
:1005D000903C687440F074E7A3F0E4A3F08F8212BB
:1005E000162C90E6A0E0FF74804FF00204BD90E668
:1005F0000174C6F0903C09E0FF903C0AE0F50C90D5
:100600003C687440F074E7A3F0E4A3F08F82121604
:100610002C90E6017456F090E6A0E0FF74804FF055
:100620000204BD903C03E0E0700990E60174C6F05E
:100630000204BD90E6017456F00204BD750A0090F4
:10064000E6B9E0FF24F45003020A14EF240A83F50C
:1006500082EF241083F583E473717A14341414D276
:100660001490C6D10706070A080A0A080A090909E8
:100670000A90E6B8E0FFBF8002800EBF8102804F83
:10068000BF820302070602076EA224E43325E0FFBF
:10069000A225E433FE420790E740EFF090E741E403
:1006A000F00000000000000000000000000000005A
:1006B0000090E68AE4F00000000000000000000066
:1006C00000000000000090E68B7402F0020A1D900A
:1006D000E740E4F090E741F0000000000000000077
:1006E000000000000000000090E68AE4F000000036
:1006F0000000000000000000000000000090E68BF9
:100700007402F0020A1D90E6BCE0FF53077E90E6FB
:10071000BCE0FEC374809EE4334F90277693FF7E47
:100720000090E6A1E0FD7C002FFFEC3EFE8F828E64
:1007300083E0FF53070190E740EFF090E741E4F0DA
:1007400000000000000000000000000000000000A9
:1007500090E68AE4F00000000000000000000000C5
:10076000000000000090E68B7402F0020A1D90E683
:10077000A0E0FF74014FF0020A1D90E6B8E0FF60B0
:1007800008BF0202801C020A1D90E6BAE0FFBF010A
:1007900005C224020A1D90E6A0E0FF74014FF0029A
:1007A0000A1D90E6BAE0600302082890E6BCE0FF6C
:1007B00053077E90E6BCE0FEC374809EE4334F9006
:1007C000277693FF7E0090E6A1E07C002FFFEC3EB1
:1007D000FE90E6BCE0FD53057E90E6BCE0FCC374F1
:1007E000809CE4334D90277693FD7C0090E6A1E059
:1007F000FB7A002DFDEA3CFC8D828C83E0FD5305E5
:10080000FE8F828E83EDF090E6BCE05480C42354CA
:100810001FFF90E6BCE0FE740F5E90E6832FF0E0D1
:10082000FF74204FF0020A1D90E6A0E0FF74014F14
:10083000F0020A1D90E6B8E0FF6008BF02028027C0
:100840000208C690E6BAE0FFBF0105D224020A1DE5
:1008500090E6BAE0FFBF0203020A1D90E6A0E0FFA7
:1008600074014FF0020A1D90E6BCE0FF53077E9032
:10087000E6BCE0FEC374809EE4334F90277693FF7E
:100880007E0090E6A1E07C002FFFEC3EFE90E6BCEF
:10089000E0FD53057E90E6BCE0FCC374809CE4332D
:1008A0004D90277693FD7C0090E6A1E0FB7A002D29
:1008B000FDEA3CFC8D828C83E0FD4305018F828E36
:1008C00083EDF0020A1D90E6A0E0FF74014FF002F4
:1008D0000A1D90E6BBE0FFBF01028019BF02028043
:1008E00026BF03028033BF060302096CBF07030261
:1008F000097E020A1D7E007F3F90E6B3EFF090E68E
:10090000B47400F0020A1D7E1C7F3F90E6B3EFF046
:1009100090E6B4741CF0020A1D90E6BAE0FF600A8B
:10092000BF01028017BF023880247ED27F3F90E64D
:10093000B3EFF090E6B474D2F0020A1D7ED67F3F8A
:1009400090E6B3EFF090E6B474D6F0020A1D7EE6AE
:100950007F3F90E6B3EFF090E6B474E6F0020A1D34
:1009600090E6A0E0FF74014FF0020A1D7E127F3F67
:1009700090E6B3EFF090E6B47412F0020A1D7EA484
:100980007F3F90E6B3EFF090E6B474A4F0020A1D46
:10099000903C04E0FF90E740F00000000000000001
:1009A00000000000000000000090E68AE4F0000073
:1009B000000000000000000000000000000090E6C1
:1009C0008B7401F0805790E6BAE0FF903C04F08011
:1009D0004C903C05E0FF90E740F000000000000074
:1009E0000000000000000000000090E68AE4F00033
:1009F0000000000000000000000000000000009067
:100A0000E68B7401F0801690E6BAE0903C05F01297
:100A10000B91800990000A75F040121F12E50A70D0
:100A20000C90E6A0E0FF74804FF0750A0022302B96
:100A30000B90E680E0FF74024FF0800990E680E0C2
:100A4000FF74FD5FF090E680E0FF74084FF09005C2
:100A5000DC120AB090E65D74FFF05391EF90E680EF
:100A6000E0FF74F75FF000000000000000000000ED
:100A70000000000000002290E682E0FF30E00890D5
:100A8000E682E0FF20E61090E682E0FF30E1209071
:100A9000E682E0FF30E71890E680E0FF74014FF057
:100AA000900014120AB090E680E0FF74FE5FF0221E
:100AB000AE82AF8390E600E05418FDFC70057BB178
:100AC000FD800DBC08067B617D0180047BC27D0238
:100AD0008E028F041EBEFF011FEA4C60178B2A8D09
:100AE0002BAA2AAC2B152A74FFB52A02152BEA4C27
:100AF00060DE80ED22000000000000000000000029
:100B0000000000000090E61274D8F0000000000021
:100B1000000000000000000000000090E615E4F076
:100B200090E614F090E613F090E611F090E610F0E5
:100B300000000000000000000000000000000000B5
:100B400090E6407483F090E6047480F000000000AA
:100B500000000000000000000000000090E60474A7
:100B600082F0000000000000000000000000000013
:100B7000000090E604E4F000000000000000000027
:100B80000000000000000090E6837412F07432F060
:100B90002290E680E0FF20E703021022903C05E06F
:100BA000FF24F950030212D4EF2F2F900BAF7302E2
:100BB0000BC4020CA4020D82020E8B020E91020ED7
:100BC000EB020F7090E61274E0F0000000000000ED
:100BD0000000000000000000000090E610E0FF743C
:100BE0007F5FF00000000000000000000000000037
:100BF00000000090E611E0FF747F5FF0000000004D
:100C000000000000000000000000000090E613E07B
:100C1000FF747F5FF0000000000000000000000093
:100C2000000000000090E614E0FF747F5FF0000019
:100C3000000000000000000000000000000090E63E
:100C400015E0FF747F5FF00000000000000000006E
:100C50000000000000000090E6047480F000000036
:100C60000000000000000000000000000090E6040A
:100C70007402F0000000000000000000000000000E
:100C800000000090E604E4F0000000000000000016
:100C9000000000000000000090E6837412F074323F
:100CA000F00212D490E61274A0F0000000000000E0
:100CB0000000000000000000000090E610E0FF745B
:100CC0007F5FF00000000000000000000000000056
:100CD00000000090E611E0FF747F5FF0000000006C
:100CE00000000000000000000000000090E613E09B
:100CF000FF747F5FF00000000000000000000000B3
:100D0000000000000090E614E0FF747F5FF0000038
:100D1000000000000000000000000000000090E65D
:100D200015E0FF747F5FF00000000000000000008D
:100D30000000000000000090E6917480F0000000C8
:100D40000000000000000000000000000090E6919C
:100D50007480F000000000000000000000000000AF
:100D600000000090E6917480F00000000000000098
:100D700000000000000000000090E6917480F00286
:100D800012D490E61274E0F00000000000000000B1
:100D9000000000000000000090E61474A0F00000C5
:100DA000000000000000000000000000000090E6CD
:100DB00010E0FF747F5FF000000000000000000002
:100DC0000000000000000090E611E0FF747F5FF07B
:100DD0000000000000000000000000000000000013
:100DE00090E613E0FF747F5FF00000000000000059
:100DF00000000000000000000090E615E0FF747F96
:100E00005FF0000000000000000000000000000093
:100E1000000090E6047480F0000000000000000074
:100E2000000000000000000090E6047402F00000E2
:100E3000000000000000000000000000000090E63C
:100E400004E4F000000000000000000000000000CA
:100E500000000090E6837412F07432F090E699740A
:100E600080F0000000000000000000000000000012
:100E7000000090E6997480F000000000000000007F
:100E800000000000000000000212D4120AF5021255
:100E9000D490E615E4F090E614F090E613F090E6B6
:100EA00011F090E610F000000000000000000000CB
:100EB00000000000000090E6127498F000000000AE
:100EC00000000000000000000000000090E69174A7
:100ED00080F00000000000000000000000000000A2
:100EE000000090E6917480F00212D490E61274D85B
:100EF000F000000000000000000000000000000002
:100F00000090E615E4F090E614F090E613F090E619
:100F100011F090E610F0000000000000000000005A
:100F200000000000000090E6047480F00000000063
:100F300000000000000000000000000090E60474C3
:100F400002F00000000000000000000000000000AF
:100F5000000090E604E4F000000000000000000043
:100F60000000000000000090E6407401F00212D47E
:100F700090E61274DAF000000000000000000000AB
:100F800000000000000090E614749AF000000000D9
:100F900000000000000000000000000090E615E4E2
:100FA000F090E613F090E611F090E610F0000000EB
:100FB0000000000000000000000000000090E604B7
:100FC0007480F0000000000000000000000000003D
:100FD00000000090E6047402F00000000000000031
:100FE00000000000000000000090E604E4F00000B3
:100FF000000000000000000000000000000090E67B
:10100000407401F090E69903F00000000000000039
:1010100000000000000000000090E6997480F002DB
:1010200012D4903C05E0FF24FC50030212D4EF2FB1
:101030002F901035730210410211210211FF02128C
:101040007D90E61274E0F000000000000000000057
:101050000000000000000090E610E0FF747F5FF0E9
:101060000000000000000000000000000000000080
:1010700090E611E0FF747F5FF000000000000000C8
:1010800000000000000000000090E613E0FF747F05
:101090005FF0000000000000000000000000000001
:1010A000000090E614E0FF747F5FF0000000000095
:1010B000000000000000000000000090E615E0FFC6
:1010C000747F5FF0000000000000000000000000DE
:1010D0000000000090E6047480F0000000000000B2
:1010E0000000000000000000000090E6047402F020
:1010F00000000000000000000000000000000000F0
:1011000090E604E4F0000000000000000000000091
:10111000000000000090E6837412F07432F00212B6
:10112000D490E61274A0F00000000000000000005F
:101130000000000000000090E610E0FF747F5FF008
:10114000000000000000000000000000000000009F
:1011500090E611E0FF747F5FF000000000000000E7
:1011600000000000000000000090E613E0FF747F24
:101170005FF0000000000000000000000000000020
:10118000000090E614E0FF747F5FF00000000000B4
:10119000000000000000000000000090E615E0FFE5
:1011A000747F5FF0000000000000000000000000FD
:1011B0000000000090E6917480F000000000000044
:1011C0000000000000000000000090E6917480F034
:1011D000000000000000000000000000000000000F
:1011E00090E6917480F00000000000000000000014
:1011F00000000000000090E6917480F00212D4908C
:10120000E61274D8F00000000000000000000000AA
:10121000000000000090E615E4F090E614F090E67F
:1012200013F090E611F090E610F0000000000000CE
:101230000000000000000000000090E6047480F050
:10124000000000000000000000000000000000009E
:1012500090E6047402F000000000000000000000AE
:1012600000000000000090E604E4F0000000000030
:101270000000000000000000000000805790E6150C
:10128000E4F090E614F090E613F090E611F090E6AA
:1012900010F000000000000000000000000000004E
:1012A000000090E6127498F00000000000000000BA
:1012B000000000000000000090E6917480F0000043
:1012C000000000000000000000000000000090E6A8
:1012D000917480F0D322C2DC3232C0E0C082C0837D
:1012E000C007C0D075D0005391EF90E65D7401F057
:1012F00090E6B5E0FF74014FF0D221D0D0D007D0F6
:1013000083D082D0E032C0E0C082C0835391EF909E
:10131000E65D7404F0D083D082D0E032C0E0C082B9
:10132000C0835391EF90E65D7402F0D083D082D0F9
:10133000E032C0E0C082C0835391EF90E65D74104C
:10134000F0903FA57402F0903F1D7407F0D083D059
:1013500082D0E032C0E0C082C0835391EF90E65D5E
:101360007408F0D083D082D0E032C0E0C082C08365
:101370005391EF90E65D7420F0903FA57407F090D4
:101380003F1D7402F0D083D082D0E032C0E0C08232
:10139000C0835391EF90E65F7402F0D222D083D0E5
:1013A00082D0E032C0E0C082C0835391EF90E65F0C
:1013B0007401F0D083D082D0E032C0E0C082C0831C
:1013C000C007C0D075D0005391BF90E6617401F0A2
:1013D00090E6F3E0FF747F5FF0D228D0D0D007D042
:1013E00083D082D0E032C0E0C082C0835391BF90EE
:1013F000E6617402F090F00014F090F001F4F090C7
:10140000F002E4F090F00314F090E690E4F090E63F
:10141000917404F0D229D083D082D0E03232AF82EE
:1014200000000000000000000000000000000000BC
:1014300090E668E0FE74034EF0000000000000003B
:1014400000000000000000000090E6617403F0005E
:10145000000000000000000000000000000000D2BA
:10146000EA00000000000000000000000000000092
:101470000090E65CE0FE74314EF0000000000000D9
:101480000000000000000000000090E660E0FE7434
:10149000034EF0000000000000000000000000000B
:1014A000000000C007121C7DD007EF700890E6C056
:1014B000744EF08009BF010690E6C0744FF090E6CC
:1014C00071E4F075B4FF90E672E0F0E5B675B6FF32
:1014D00075B5FF00000000000000000000000000E3
:1014E00000000090E60B7403F00000000000000014
:1014F00000000000000000000022000000000000CA
:101500000000000000000000000090E668E0FF74AA
:10151000034FF00000000000000000000000000089
:1015200000000090E6617403F0000000000000007D
:10153000000000000000000000D2EA0000000000EF
:10154000000000000000000000000090E65CE0FFEA
:1015500074314FF0000000000000000000000000A7
:101560000000000090E660E0FF74034FF000000010
:101570000000000000000000000000000090E6C035
:10158000744FF090E671E4F075B4FF90E672E0F00D
:10159000E5B675B6FF75B5FF00000000000000005D
:1015A000000000000000000090E60B7403F0000053
:1015B000000000000000000000000000000090E6B5
:1015C000CEE4F00000000000000000000000000079
:1015D00000000090E6CFE4F00000000000000000F2
:1015E000000000000000000090E6D0E4F0000000E1
:1015F0000000000000000000000000000090E6D1A4
:10160000E4F022C2E990E67AE4F022903C6B740B9D
:10161000F0E4A3F07440A3F0752A0175822A121732
:10162000285007E50B30E402D322C322AF8290E6B4
:10163000787480F0EF2F90E679F07F0090E678E004
:10164000FE20E012BF0A00500D900001C007120AF0
:10165000B0D0070F80E690E678E0FF20E12490E626
:10166000787440F07F0090E678E0FE30E612BF0A22
:1016700000500D900001C007120AB0D0070F80E69D
:10168000C322903C68E0FDA3E0FEA3E0FF7C00C322
:10169000EC950C506F8D828E838FF012275AFBA32E
:1016A000AD82AE8390E679EBF07B0090E678E0FACD
:1016B00020E022BB0A00501D900001C007C006C0F8
:1016C00005C004C003120AB0D003D004D005D00670
:1016D000D0070B80D690E678E0FB20E12490E678F6
:1016E0007440F07B0090E678E0FA30E612BB0A0026
:1016F000500D900001C003120AB0D0030B80E6C366
:10170000220C808B90E6787440F07F0090E678E0C1
:10171000FE30E612BF0A00500D900001C007120A09
:10172000B0D0070F80E6D322AF82E52A7002C32231
:1017300090E678E0FE74804EF0EF2FFF90E679049B
:10174000F090E678E0FF30E0F890E678E0FF20E106
:101750001390E678E0FF74404FF090E678E0FF20C9
:10176000E6F8C3227401B52A1890E678E0FF7420E9
:101770004FF090E679E090E678E0FF30E0F802186C
:101780000490E679E090E678E0FF30E0F8903C6B7A
:10179000E0FDA3E0FEA3E0FF7C00AA2A7B00EA2490
:1017A000FEFAEB34FFFB8C007900C3E89AE9648011
:1017B0008BF063F08095F0501E90E679E0FB8D820F
:1017C0008E838FF012273FA3AD82AE8390E678E040
:1017D000FB30E0F80C80C390E678E0FC74204CF01D
:1017E00090E679E0FC8D828E838FF012273F903C4B
:1017F0006B74012DF0E43EA3F0EFA3F090E678E0E7
:10180000FF30E0F890E678E0FF74404FF0903C6BDA
:10181000E0FDA3E0FEA3E0FF90E679E0FC8D828E80
:10182000838FF012273F90E678E0FF20E6F8D3227E
:10183000AF82E52B7002C32290E6787480F0EF2F20
:10184000FF90E679F090E678E0FE30E0F890E678F8
:10185000E0FE20E11090E6787440F090E678E0FE3B
:1018600020E6F8C32290E679E52AF090E678E0FEDB
:1018700030E0F890E6787480F090E679EF04F0902C
:10188000E678E0FF30E0F890E679E090E678E0FF77
:1018900030E0F8AF2B903C6EE0FCA3E0FDA3E0FE4F
:1018A000EF24FE5027BF020690E6787420F090E601
:1018B00079E0FB8C828D838EF012273FA3AC82AD42
:1018C0008390E678E0FB30E0F81F80D490E67874EF
:1018D00040F090E679E0FF8C828D838EF012273FF6
:1018E00090E678E0FF20E6F8D322AF8290E678E039
:1018F000FE20E6F8C2E9EF2FFF90E678E0FE748064
:101900004EF090E679EFF090E678E0FE30E0F89067
:10191000E678E0FE74404EF090E678E0FE20E6F8CF
:1019200090E678E0FE30E1D1D2E922858211903C48
:1019300071E0FCA3E0FDA3E0FEE4F512F513A80DB1
:10194000A90EC3E512950FE51395104001227F0003
:1019500090E678E0FB30E4097F018903903C74EB6A
:10196000F08F030FEB2474F582E4343CF583880296
:101970007B00EAF0EF04F50CEF2474F514E4343C3A
:10198000F515AA12AF130512E4B512020513EA2CDD
:10199000FAEF3DFF8E038A828F838BF012275A85E0
:1019A0001482851583F0903C687474F0743CA3F045
:1019B000E4A3F0851182C006C005C004C001C000C8
:1019C00012162CD000D001D004D005D00608B800E3
:1019D000010902194275824022AF827E0090E678AA
:1019E000E0FD30E4097E01AD17903C7AEDF0EE04A5
:1019F000F50CEE247AF582E4343CF583AD16EDF077
:101A0000903C68747AF0743CA3F0E4A3F08F82C039
:101A10000712162CD00785182A903C77E0FCA3E02B
:101A2000FDA3E0FE903C6BECF0EDA3F0EEA3F08F95
:101A300082021728903D7CE4F0903D7DF075C8341B
:101A400075CBFF75CAF3C2AC7598FE22AF82A2991E
:101A5000E433FEBE0108C2998F9975820122758216
:101A60000022AF828F82C007121A4CE582D0076035
:101A7000F322E582FFC4540FFE53070F7D028D044D
:101A80001DEC24FF502CEE24F650088E0474372CE5
:101A9000FE80068E0474302CFE8E82C007C006C005
:101AA00005121A4CE582D005D006D00760EB8F06F0
:101AB00080CC22AD82AE83AFF07C00EC2DF9E43E09
:101AC000FA8F0389828A838BF012275AF9FB6020F0
:101AD0008B82C007C006C005C004C003121A4CE5C3
:101AE00082D003D004D005D006D00760E30C80CBB1
:101AF00022AD82AE83AFF07C00C3EC951A5047EC68
:101B00002DF9E43EFA8F0389828A838BF012275ADB
:101B1000F582C007C006C005C004121A72D004D0F6
:101B200005D006D007E51B601A851B82C007C006DA
:101B3000C005C004121A4CE582D004D005D006D0EE
:101B40000760E60C80B322AD82AE83AFF0A298E4CA
:101B500033FCBC01118D828E838FF0E59912273FF3
:101B6000C2987582012275820022AD82AE83AFF0E9
:101B70007C00EC2DF9E43EFA8F0389828A838BF096
:101B800012275AF9FB6043903D7CE0FAE02401F013
:101B9000EA247CF582E4343CF583EBF0903D7CE074
:101BA000FB903D7DE0FAEBB5021D903D7CE014F02A
:101BB000E0FB7A001BBBFF011AEB247CF582EA34C0
:101BC0003CF583742AF0220C80A822E582FFC454DD
:101BD0000FFE53070F7D028D041DEC24FF5057EEBE
:101BE00024F650088E0474372CFE80068E04743060
:101BF0002CFE903D7CE0FCE02401F0EC247CF5829E
:101C0000E4343CF583EEF0903D7CE0FC903D7DE0DB
:101C1000FBECB5031D903D7CE014F0E0FC7B001C68
:101C2000BCFF011BEC247CF582EB343CF583742A69
:101C3000F0228F0680A122903D7CE0FF903D7DE068
:101C4000FEEFB5060122903D7DE0247CF582E43470
:101C50003CF583E0F582121A4CE5826007903D7DE9
:101C6000E02401F022227E657F1C90E606EFF090D2
:101C7000E607EEF090E6057402F0021C6590E601BE
:101C80007416F090E6F574FFF0903E2CE090E6F3C9
:101C9000F0903E2DE090E6C3F0903E2EE090E6C13D
:101CA000F0903E2FE090E6C2F0903E31E090E6C02A
:101CB000F0903E32E090E6F4F075AF077E887F3D0D
:101CC0008F068E9A7E887F3D7F008E9B759DE48F68
:101CD0009E7F0090E67BE0FE90E67CF00FBF8000E8
:101CE00040F1903E08E090E6C6F0903E09E090E6B4
:101CF000C7F0903E0AE090E6C8F0903E0BE090E618
:101D0000C9F0903E0CE090E6CAF0903E0DE090E6FF
:101D1000CBF0903E0EE090E6CCF0903E0FE090E6E7
:101D2000CDF022751C000000000000000000000043
:101D30000000000000007E007F00E5BB20E7090EE8
:101D4000BE00010FEE4F70F2000000000000000026
:101D5000000000000000000090E6F1E0F51C00002B
:101D600000000000000000000000000000007E00F5
:101D70007F00E5BB20E7090EBE00010FEE4F70F2B9
:101D800090E6F2E0F51C851C822290E680E0FF30B0
:101D9000E720903C05E0FF24F94017EF2F901DA1AC
:101DA00073800C800D8009800880078004800322E6
:101DB00022222290E6007412F000000000000000D1
:101DC00000000000000000000090E601E0FF744009
:101DD0004FF00000000000000000000000000000C4
:101DE000000090E610E0FF747F5FF000000000004C
:101DF000000000000000000000000090E611E0FF7D
:101E0000747F5FF000000000000000000000000090
:101E10000000000090E613E0FF747F5FF000000018
:101E20000000000000000000000000000090E61428
:101E3000E0FF747F5FF00000000000000000000081
:101E400000000000000090E615E0FF747F5FF000E6
:101E500000000000000000000000000000000090F2
:101E6000E61274E0F0000000000000000000000036
:101E7000000000000090E6837412F07432F000005D
:101E8000000000000000000000000000000090E6DC
:101E900018740CF0000000000000000000000000BA
:101EA0000000000090E6207404F000000000000034
:101EB0000000000000000000000090E621E4F000B7
:101EC0000000000000000000000000000000009082
:101ED000E6197404F000000000000000000000009B
:101EE000000000000090E61A7404F00000000000FA
:101EF000000000000000000000000090E61B7404D9
:101F0000F0000000000000000000000000000000E1
:101F10000022AD82AE83AFF090E6B9E0FCBCB20027
:101F20005003022725EC24335003022725EC244ECE
:101F3000FC240A83F582EC241F83F583E4731E429C
:101F40009E25CAD6DD0205557474B0252525D7D740
:101F5000A6B9095911C8B2E86921212127212221F6
:101F6000232222221F1F2727272323201F2020234D
:101F700023202023000000000000000000000000DB
:101F80000000000090E6D17401F0000000000000A5
:101F90000000000000000000000075BB040000000D
:101FA00000000000000000000000000000022725E3
:101FB00090E6F574FFF0022725903C00E0FC90E7E6
:101FC00040F00000000000000000000000000000E1
:101FD000000090E68AE4F00000000000000000002D
:101FE0000000000000000090E68B7401F00000008B
:101FF0000000000000000000000000000090E6A0CB
:10200000E0FC74804CF002272590E60AE0FC90E7A3
:1020100040F0000000000000000000000000000090
:10202000000090E68AE4F0000000000000000000DC
:102030000000000000000090E68B7401F00000003A
:102040000000000000000000000000000090E6A07A
:10205000E0FC74804CF002272590E740740FF000FC
:1020600000000000000000000000000000000090E0
:10207000E68AE4F00000000000000000000000001C
:102080000000000090E68B7401F0000000000000EA
:102090000000000000000000000090E6A0E0FC74DA
:1020A000804CF002272590E6BAE0FC903C01F0025B
:1020B000272590E67AE0FC74FE5CF000000000004A
:1020C000000000000000000000000090E68AE4F03C
:1020D0000000000000000000000000000000000000
:1020E00090E68BE4F002272590E67AE0FC74014C40
:1020F000F0000000000000000000000000000000F0
:102100000090E68AE4F000000000000000000000FB
:1021100000000000000090E68BE4F002272590E626
:10212000BCE0903C08F090E6BEE0FC903C4CF075C2
:102130000900D2238D828E838FF0740112273F0213
:10214000272590E6BCE0903C09F090E6BEE0FC90CC
:102150003C0AF0E0FC24FC5006903C0A7403F07545
:102160000800000000000000000000000000000067
:10217000000090E68AE4F00000000000000000008B
:1021800000000000000000903C0AE0FC90E68BF0AC
:102190008D828E838FF0740112273F02272590E6EF
:1021A000BCE0903C08F090E6BEE0903C4CF090E63D
:1021B000BAE0FC903C0BF0750901D2238D828E832E
:1021C0008FF0740112273F022725D2237509028D53
:1021D000828E838FF0740112273F02272590E6BA82
:1021E000E0903C4EF090E6BBE0FC903C4DF0D222FB
:1021F000750805903C0AE4F08D828E838FF00412FE
:10220000273F02272590E6BCE0903C09F090E6BE0F
:10221000E0FC903C0AF0750803000000000000009C
:1022200000000000000000000090E68AE4F00000DA
:102230000000000000000000000000000000903CD2
:102240000AE0FC90E68BF08D828E838FF074011291
:10225000273F02272590E6BCE0FC903C03F0D22209
:10226000903C0AE4F07508048D828E838FF012276B
:102270003F02272590E740E4F00000000000000046
:1022800000000000000000000090E7417411F00021
:1022900000000000000000000000000000000090AE
:1022A000E68AE4F0000000000000000000000000EA
:1022B0000000000090E68B7402F0000000000000B7
:1022C0000000000000000000000090E6A0E0FC74A8
:1022D000804CF002272590E6BCE0903C4FF090E661
:1022E000BDE0903C50F090E6BEE0FC903C4CF0D25B
:1022F000237509038D828E838FF0740112273F02AC
:102300002725121DB375820112141E120AF5022729
:102310002590E7407407F000000000000000000076
:102320000000000000000090E68AE4F000000000D9
:1023300000000000000000000000000090E68B7428
:1023400001F000000000000000000000000000009C
:10235000000090E6A0E0FF74804FF09003E8120ABE
:10236000B0D22B120A2E02272590E6B5E0FF74FEAC
:102370005FF000000000000000000000000000000E
:10238000000090E6BFE0FF90E68AF0000000000049
:10239000000000000000000000000090E6BEE0FF2A
:1023A00090E68BF00000000000000000000000003C
:1023B0000000000090E6BBE090E6B3F090E6BAE0E3
:1023C000FF90E6B4F0022725903C007401F0903CA9
:1023D00001E0FF74014FF090E6BAE0FF7E0090E666
:1023E000BBE0FC7D00903D7FED4FF0EC4EA3F09004
:1023F000E6BEE0FF7E0090E6BFE0FC7D00903D8100
:10240000ED4FF0EC4EA3F090E6B8E0FFBFC00280C5
:102410000302253F903D81E0F5F0A3E045F0700315
:1024200002272590E6A0E0FF20E1F8903D81E0FE44
:10243000A3E0FFC3EE9440EF9400500A903D83EE7A
:10244000F0EFA3F08009903D837440F0E4A3F09096
:10245000E6B9E0FFBFC345903D7FE0FEA3E0FF90FB
:102460003D83E0FCA3E0FD7A007B00C3EA9CEB9D8A
:102470005073C004C005EA2440F8EB34E7F98E0439
:102480008F05EA2CF582EB3DF583E0FD8882898398
:10249000F00ABA00010BD005D00480CF903D83E054
:1024A000FEA3E0FF7C007D00C3EC9EED9F5014EC8A
:1024B0002440F582ED34E7F58374CDF00CBC00E8E0
:1024C0000D80E5903D7FE0FCA3E0903C777440F008
:1024D00074E7A3F0E4A3F0751628F5178E188F198A
:1024E0008C821219D90000000000000000000000DA
:1024F000000000000090E68AE4F000000000000008
:1025000000000000000000000000903D83E0FEA3FA
:10251000E0FF90E68BEEF0903D7FE0FCA3E0FD90C5
:102520003D7FEE2CF0EF3DA3F0903D81E0FCA3E079
:10253000FD903D81ECC39EF0ED9FA3F0022414902A
:10254000E6B8E0FFBF40028003022725903C02E08E
:10255000E070091219D5E582903C02F0903D81E0CF
:10256000F5F0A3E045F0700302272500000000000D
:10257000000000000000000000000090E68AE4F087
:10258000000000000000000000000000000000004B
:1025900090E68BE4F0000000000000000000000066
:1025A000000000000090E6A0E0FF20E1F890E68B3C
:1025B000E0FE7F0090E6B9E0FDBDC340903D7FE0C6
:1025C000FCA3E0FD7A007B00C3EA9EEB9F40030280
:1025D00026FDC006C0078C008D01EA28F8EB39F90A
:1025E000EA2440F582EB34E7F583E0FF88828983B3
:1025F000F00ABA00010BD007D00680CC903D85E4EC
:10260000F0A3F0903D7FE0FCA3E0FD8C288D2990A5
:102610003D85E0F8A3E0F9C3E89EE99F4003022668
:10262000FD903C02E0903D87F0903C02E0FBBB0156
:10263000028061E82CF526E93DF527903C02E0FB9D
:102640007A001BBBFF011AE5265203E5275202EB75
:102650004A60178C03E82BFB903C02E01452039075
:102660003C02E0FA903D87C39BF0903D85E0F8A3E3
:10267000E0F9EEC398F526EF99F527903D87E0FB4A
:102680007A00C3E5269BE5279A50098E03903D8783
:10269000EBC398F0C004C005AA28903D85E0F9A3DB
:1026A000E0FB8900E82AFA903D87E0F88818751960
:1026B00000E92440FCEB34E7FD903C77ECF0EDA31F
:1026C000F0E4A3F075160AF5178A82C007C006C0A9
:1026D00005C004C003C001C0001219D9D000D00148
:1026E000D003D004D005D006D0077D00903D85E80A
:1026F00029F0ED3BA3F0D005D00402260F903D7FDA
:10270000E0FCA3E0FD903D7FEE2CF0EF3DA3F090C8
:102710003D81E0FCA3E0FD903D81ECC39EF0ED9F88
:10272000A3F002255CC3227582002290E682E04479
:10273000C0F090E681F043870100000000002220F5
:10274000F71130F6138883A88220F509F6A883755F
:1027500083002280FEF280F5F02220F71430F61478
:102760008883A88220F507E6A88375830022E2808B
:10277000F7E49322E02200010202030304040505AA
:1027800008113F01010101070101030202020200D9
:102790000000000000000000000800000000003FF2
:1027A000010101010101010700000000000000001B
:1027B0000000000000000000000000000000003FDA
:1027C0000111933C140101070111030101000000F4
:1027D00000000000000000000008E92D0900003F93
:1027E000011193141D3901070111030101010000BA
:1027F000000000000000000000080909003F003F41
:1028000000000000000000000000000000000000C8
:1028100000000000000000000000000000000000B8
:102820000000000060000000164F00FFFFFFFFFFE8
:10283000C0E0C082C0835391BF90E6617402F09003
:10284000E6487402F000000090F00014F090F001EF
:10285000F4F090F002E4F090F00314F090E690E4CD
:10286000F090E6917404F0D229D083D082D0E03287
:10287000FFFFFFFFFFFFFFFFFFFFFFFFFFFFFFFF68
:10288000FFFFFFFFFFFFFFFFFFFFFFFFFFFFFFFF58
:10289000FFFFFFFFFFFFFFFFFFFFFFFFFFFFFFFF48
:1028A000FFFFFFFFFFFFFFFFFFFFFFFFFFFFFFFF38
:103F00001201000200000040B40417EA00000102A0
:103F100003010A06000200000040010009028700B8
:103F200001010080320904000001FF0000000705C4
:103F300082020002000904000101FF0000000705E1
:103F400002020002000904000202FF00000007054F
:103F500082020002000705060200020009040003B5
:103F600001FF00000007058201001401090400049C
:103F700001FF00000007050201001401090400050B
:103F800001FF00000007058201000401090400068A
:103F900002FF000000070582010004010705060179
:103FA0000014010009022E00010100803209040002
:103FB0000004FF000000070502024000000705049E
:103FC0000240000007058602400000070588024005
:103FD00000000403090410034500740061006C0034
:103FE00075006D00610016034C0053002000430073
:103FF0006C0061007300730069006300040300003B
:00000001FF
