:04000000020069325F
:01000B0032C2
:0100130032BA
:01001B0032B2
:0100230032AA
:01002B0032A2
:030033000212D6E0
:01003B003292
:03004300020100B7
:01004B003282
:0300530002018027
:01005B003272
:030063000212D9AD
:0300C500020066D0
:030066000203FF93
:10028000AF82C2B79001F4C007120AB0D0078F0640
:100290001FEE24FF5016D2B79000C8C007120AB054
:1002A000C2B79000C8120AB0D00780E29000FA02EC
:1002B0000AB0AC82AD83AEF0FF0000000000000089
:1002C00000000000000000000090E6CEEFF000000B
:1002D000000000000000000000000000000090E6A8
:1002E000CFEEF00000000000000000000000000061
:1002F00000000090E6D0EDF00000000000000000DB
:10030000000000000000000090E6D1ECF0000000CA
:100310000000000000000000000000000022AC828D
:10032000AD83AEF0FFE5BB20E71200000000000047
:100330000000000000000000000080E990E6047466
:1003400080F000000000000000000000000000003D
:10035000000090E6047482F000000000000000003D
:10036000000000000000000090E604E4F00000003F
:100370000000000000000000000000000090E68384
:100380007412F07432F07B00EB04FAFB70FA8C828A
:100390008D838EF0EF1202B200000000000000001A
:1003A000000000000000000075BB04000000000019
:1003B00000000000000000000000002290E6A3E022
:1003C000FF20E30D90E6907404F090E691E4F08055
:1003D000EB903C56E02401F0A3E03400F02290F0D2
:1003E000007401F090F001F4F090F002E4F090F06D
:1003F0000314F090E690E4F090E6917404F022C2C9
:1004000020C224C225C221C222C223C228C22990EE
:100410003C5BE4F0903C5CF0A3F0903C5EF0121C7E
:10042000661216037582011202809003E8120AB068
:10043000903FA57402F0903F1D7407F0903C02E4D9
:10044000F090E678E05410C4540FFF903C01742003
:100450004FF0E013922A903C00E433F0D2E8D2DD72
:1004600090E668E0FF74084FF090E65EE0FF7403EA
:100470004FF0121DB375820112141ED2AF90E680A8
:10048000E0FF20E105D22B120A2E90E680E0FF74F7
:10049000F75FF0538EF8758202120280903C54E4AC
:1004A000F0A3F0903C56F0A3F0903C58F0903C59EB
:1004B000F0903C5AF0903C63F0903C64F0903C54D7
:1004C000E0FEA3E0FF903C5474012EF0E43FA3F063
:1004D0007E00530780EE4FB40100922A92B7903C01
:1004E00054E0FEA3E0FFBEFF36BFFF332022099099
:1004F0003C51E02401F08005903C51E4F0202809B3
:10050000903C52E02401F08005903C52E4F0202918
:1005100009903C53E02401F08005903C53E4F090B6
:100520003C51E0FF24F5502E903C51E4F090E65F02
:10053000E0FFBF0202800690E65F7402F090E65D85
:10054000E0FFBF0102800F90E65D7401F090E6B518
:10055000E0FF74014FF0903C52E0FF24F5501790FB
:100560003C52E4F05391BF90E6617401F090E6F3E1
:10057000E0FF747F5FF0903C53E0FF24F5500E9055
:100580003C53E4F05391BF90E6617402F0302107D0
:1005900012063CC221D2202022030204BDA220E484
:1005A00033FFBF010280030204BDC222C220E4B5B2
:1005B000080280117403B5080280337404B5080280
:1005C00080610204BD903C09E0FF903C0AE0F50C1C
:1005D000903C687440F074E7A3F0E4A3F08F8212BB
:1005E000162C90E6A0E0FF74804FF00204BD90E668
:1005F0000174C6F0903C09E0FF903C0AE0F50C90D5
:100600003C687440F074E7A3F0E4A3F08F82121604
:100610002C90E6017456F090E6A0E0FF74804FF055
:100620000204BD903C03E0E0700990E60174C6F05E
:100630000204BD90E6017456F00204BD750A0090F4
:10064000E6B9E0FF24F45003020A14EF240A83F50C
:1006500082EF241083F583E473717A14341414D276
:100660001490C6D10706070A080A0A080A090909E8
:100670000A90E6B8E0FFBF8002800EBF8102804F83
:10068000BF820302070602076EA224E43325E0FFBF
:10069000A225E433FE420790E740EFF090E741E403
:1006A000F00000000000000000000000000000005A
:1006B0000090E68AE4F00000000000000000000066
:1006C00000000000000090E68B7402F0020A1D900A
:1006D000E740E4F090E741F0000000000000000077
:1006E000000000000000000090E68AE4F000000036
:1006F0000000000000000000000000000090E68BF9
:100700007402F0020A1D90E6BCE0FF53077E90E6FB
:10071000BCE0FEC374809EE4334F90277693FF7E47
:100720000090E6A1E0FD7C002FFFEC3EFE8F828E64
:1007300083E0FF53070190E740EFF090E741E4F0DA
:1007400000000000000000000000000000000000A9
:1007500090E68AE4F00000000000000000000000C5
:10076000000000000090E68B7402F0020A1D90E683
:10077000A0E0FF74014FF0020A1D90E6B8E0FF60B0
:1007800008BF0202801C020A1D90E6BAE0FFBF010A
:1007900005C224020A1D90E6A0E0FF74014FF0029A
:1007A0000A1D90E6BAE0600302082890E6BCE0FF6C
:1007B00053077E90E6BCE0FEC374809EE4334F9006
:1007C000277693FF7E0090E6A1E07C002FFFEC3EB1
:1007D000FE90E6BCE0FD53057E90E6BCE0FCC374F1
:1007E000809CE4334D90277693FD7C0090E6A1E059
:1007F000FB7A002DFDEA3CFC8D828C83E0FD5305E5
:10080000FE8F828E83EDF090E6BCE05480C42354CA
:100810001FFF90E6BCE0FE740F5E90E6832FF0E0D1
:10082000FF74204FF0020A1D90E6A0E0FF74014F14
:10083000F0020A1D90E6B8E0FF6008BF02028027C0
:100840000208C690E6BAE0FFBF0105D224020A1DE5
:1008500090E6BAE0FFBF0203020A1D90E6A0E0FFA7
:1008600074014FF0020A1D90E6BCE0FF53077E9032
:10087000E6BCE0FEC374809EE4334F90277693FF7E
:100880007E0090E6A1E07C002FFFEC3EFE90E6BCEF
:10089000E0FD53057E90E6BCE0FCC374809CE4332D
:1008A0004D90277693FD7C0090E6A1E0FB7A002D29
:1008B000FDEA3CFC8D828C83E0FD4305018F828E36
:1008C00083EDF0020A1D90E6A0E0FF74014FF002F4
:1008D0000A1D90E6BBE0FFBF01028019BF02028043
:1008E00026BF03028033BF060302096CBF07030261
:1008F000097E020A1D7E007F3F90E6B3EFF090E68E
:10090000B47400F0020A1D7E1C7F3F90E6B3EFF046
:1009100090E6B4741CF0020A1D90E6BAE0FF600A8B
:10092000BF01028017BF023880247ED27F3F90E64D
:10093000B3EFF090E6B474D2F0020A1D7ED67F3F8A
:1009400090E6B3EFF090E6B474D6F0020A1D7EE6AE
:100950007F3F90E6B3EFF090E6B474E6F0020A1D34
:1009600090E6A0E0FF74014FF0020A1D7E127F3F67
:1009700090E6B3EFF090E6B47412F0020A1D7EA484
:100980007F3F90E6B3EFF090E6B474A4F0020A1D46
:10099000903C04E0FF90E740F00000000000000001
:1009A00000000000000000000090E68AE4F0000073
:1009B000000000000000000000000000000090E6C1
:1009C0008B7401F0805790E6BAE0FF903C04F08011
:1009D0004C903C05E0FF90E740F000000000000074
:1009E0000000000000000000000090E68AE4F00033
:1009F0000000000000000000000000000000009067
:100A0000E68B7401F0801690E6BAE0903C05F01297
:100A10000B91800990000A75F040121F12E50A70D0
:100A20000C90E6A0E0FF74804FF0750A0022302B96
:100A30000B90E680E0FF74024FF0800990E680E0C2
:100A4000FF74FD5FF090E680E0FF74084FF09005C2
:100A5000DC120AB090E65D74FFF05391EF90E680EF
:100A6000E0FF74F75FF000000000000000000000ED
:100A70000000000000002290E682E0FF30E00890D5
:100A8000E682E0FF20E61090E682E0FF30E1209071
:100A9000E682E0FF30E71890E680E0FF74014FF057
:100AA000900014120AB090E680E0FF74FE5FF0221E
:100AB000AE82AF8390E600E05418FDFC70057BB178
:100AC000FD800DBC08067B617D0180047BC27D0238
:100AD0008E028F041EBEFF011FEA4C60178B2A8D09
:100AE0002BAA2AAC2B152A74FFB52A02152BEA4C27
:100AF00060DE80ED22000000000000000000000029
:100B0000000000000090E61274D8F0000000000021
:100B1000000000000000000000000090E615E4F076
:100B200090E614F090E613F090E611F090E610F0E5
:100B300000000000000000000000000000000000B5
:100B400090E6407483F090E6047480F000000000AA
:100B500000000000000000000000000090E60474A7
:100B600082F0000000000000000000000000000013
:100B7000000090E604E4F000000000000000000027
:100B80000000000000000090E6837412F07432F060
:100B90002290E680E0FF20E703021022903C05E06F
:100BA000FF24F950030212D4EF2F2F900BAF7302E2
:100BB0000BC4020CA4020D82020E8B020E91020ED7
:100BC000EB020F7090E61274E0F0000000000000ED
:100BD0000000000000000000000090E610E0FF743C
:100BE0007F5FF00000000000000000000000000037
:100BF00000000090E611E0FF747F5FF0000000004D
:100C000000000000000000000000000090E613E07B
:100C1000FF747F5FF0000000000000000000000093
:100C2000000000000090E614E0FF747F5FF0000019
:100C3000000000000000000000000000000090E63E
:100C400015E0FF747F5FF00000000000000000006E
:100C50000000000000000090E6047480F000000036
:100C60000000000000000000000000000090E6040A
:100C70007402F0000000000000000000000000000E
:100C800000000090E604E4F0000000000000000016
:100C9000000000000000000090E6837412F074323F
:100CA000F00212D490E61274A0F0000000000000E0
:100CB0000000000000000000000090E610E0FF745B
:100CC0007F5FF00000000000000000000000000056
:100CD00000000090E611E0FF747F5FF0000000006C
:100CE00000000000000000000000000090E613E09B
:100CF000FF747F5FF00000000000000000000000B3
:100D0000000000000090E614E0FF747F5FF0000038
:100D1000000000000000000000000000000090E65D
:100D200015E0FF747F5FF00000000000000000008D
:100D30000000000000000090E6917480F0000000C8
:100D40000000000000000000000000000090E6919C
:100D50007480F000000000000000000000000000AF
:100D600000000090E6917480F00000000000000098
:100D700000000000000000000090E6917480F00286
:100D800012D490E61274E0F00000000000000000B1
:100D9000000000000000000090E61474A0F00000C5
:100DA000000000000000000000000000000090E6CD
:100DB00010E0FF747F5FF000000000000000000002
:100DC0000000000000000090E611E0FF747F5FF07B
:100DD0000000000000000000000000000000000013
:100DE00090E613E0FF747F5FF00000000000000059
:100DF00000000000000000000090E615E0FF747F96
:100E00005FF0000000000000000000000000000093
:100E1000000090E6047480F0000000000000000074
:100E2000000000000000000090E6047402F00000E2
:100E3000000000000000000000000000000090E63C
:100E400004E4F000000000000000000000000000CA
:100E500000000090E6837412F07432F090E699740A
:100E600080F0000000000000000000000000000012
:100E7000000090E6997480F000000000000000007F
:100E800000000000000000000212D4120AF5021255
:100E9000D490E615E4F090E614F090E613F090E6B6
:100EA00011F090E610F000000000000000000000CB
:100EB00000000000000090E6127498F000000000AE
:100EC00000000000000000000000000090E69174A7
:100ED00080F00000000000000000000000000000A2
:100EE000000090E6917480F00212D490E61274D85B
:100EF000F000000000000000000000000000000002
:100F00000090E615E4F090E614F090E613F090E619
:100F100011F090E610F0000000000000000000005A
:100F200000000000000090E6047480F00000000063
:100F300000000000000000000000000090E60474C3
:100F400002F00000000000000000000000000000AF
:100F5000000090E604E4F000000000000000000043
:100F60000000000000000090E6407401F00212D47E
:100F700090E61274DAF000000000000000000000AB
:100F800000000000000090E614749AF000000000D9
:100F900000000000000000000000000090E615E4E2
:100FA000F090E613F090E611F090E610F0000000EB
:100FB0000000000000000000000000000090E604B7
:100FC0007480F0000000000000000000000000003D
:100FD00000000090E6047402F00000000000000031
:100FE00000000000000000000090E604E4F00000B3
:100FF000000000000000000000000000000090E67B
:10100000407401F090E69903F00000000000000039
:1010100000000000000000000090E6997480F002DB
:1010200012D4903C05E0FF24FC50030212D4EF2FB1
:101030002F901035730210410211210211FF02128C
:101040007D90E61274E0F000000000000000000057
:101050000000000000000090E610E0FF747F5FF0E9
:101060000000000000000000000000000000000080
:1010700090E611E0FF747F5FF000000000000000C8
:1010800000000000000000000090E613E0FF747F05
:101090005FF0000000000000000000000000000001
:1010A000000090E614E0FF747F5FF0000000000095
:1010B000000000000000000000000090E615E0FFC6
:1010C000747F5FF0000000000000000000000000DE
:1010D0000000000090E6047480F0000000000000B2
:1010E0000000000000000000000090E6047402F020
:1010F00000000000000000000000000000000000F0
:1011000090E604E4F0000000000000000000000091
:10111000000000000090E6837412F07432F00212B6
:10112000D490E61274A0F00000000000000000005F
:101130000000000000000090E610E0FF747F5FF008
:10114000000000000000000000000000000000009F
:1011500090E611E0FF747F5FF000000000000000E7
:1011600000000000000000000090E613E0FF747F24
:101170005FF0000000000000000000000000000020
:10118000000090E614E0FF747F5FF00000000000B4
:10119000000000000000000000000090E615E0FFE5
:1011A000747F5FF0000000000000000000000000FD
:1011B0000000000090E6917480F000000000000044
:1011C0000000000000000000000090E6917480F034
:1011D000000000000000000000000000000000000F
:1011E00090E6917480F00000000000000000000014
:1011F00000000000000090E6917480F00212D4908C
:10120000E61274D8F00000000000000000000000AA
:10121000000000000090E615E4F090E614F090E67F
:1012200013F090E611F090E610F0000000000000CE
:101230000000000000000000000090E6047480F050
:10124000000000000000000000000000000000009E
:1012500090E6047402F000000000000000000000AE
:1012600000000000000090E604E4F0000000000030
:101270000000000000000000000000805790E6150C
:10128000E4F090E614F090E613F090E611F090E6AA
:1012900010F000000000000000000000000000004E
:1012A000000090E6127498F00000000000000000BA
:1012B000000000000000000090E6917480F0000043
:1012C000000000000000000000000000000090E6A8
:1012D000917480F0D322C2DC3232C0E0C082C0837D
:1012E000C007C0D075D0005391EF90E65D7401F057
:1012F00090E6B5E0FF74014FF0D221D0D0D007D0F6
:1013000083D082D0E032C0E0C082C0835391EF909E
:10131000E65D7404F0D083D082D0E032C0E0C082B9
:10132000C0835391EF90E65D7402F0D083D082D0F9
:10133000E032C0E0C082C0835391EF90E65D74104C
:10134000F0903FA57402F0903F1D7407F0D083D059
:1013500082D0E032C0E0C082C0835391EF90E65D5E
:101360007408F0D083D082D0E032C0E0C082C08365
:101370005391EF90E65D7420F0903FA57407F090D4
:101380003F1D7402F0D083D082D0E032C0E0C08232
:10139000C0835391EF90E65F7402F0D222D083D0E5
:1013A00082D0E032C0E0C082C0835391EF90E65F0C
:1013B0007401F0D083D082D0E032C0E0C082C0831C
:1013C000C007C0D075D0005391BF90E6617401F0A2
:1013D00090E6F3E0FF747F5FF0D228D0D0D007D042
:1013E00083D082D0E032C0E0C082C0835391BF90EE
:1013F000E6617402F090F00014F090F001F4F090C7
:10140000F002E4F090F00314F090E690E4F090E63F
:0E141000917404F0D229D083D082D0E0323221
:0A277600000102020303040405053C
:10141E00AF8200000000000000000000000000008D
:10142E00000090E668E0FE74034EF000000000003D
:10143E00000000000000000000000090E661740350
:10144E00F00000000000000000000000000000009E
:10145E0000D2EA00000000000000000000000000C2
:10146E0000000090E65CE0FE74314EF000000000DB
:10147E0000000000000000000000000090E660E0A8
:10148E00FE74034EF000000000000000000000009B
:10149E000000000000C007121C7DD007EF700890FE
:1014AE00E6C0744EF08009BF010690E6C0744FF09E
:1014BE0090E671E4F075B4FF90E672E0F0E5B67573
:1014CE00B6FF75B5FF000000000000000000000030
:1014DE00000000000090E60B7403F0000000000016
:1014EE0000000000000000000000002200000000CC
:1014FE0000000000000000000000000090E668E020
:10150E00FF74034FF0000000000000000000000018
:10151E00000000000090E6617403F000000000007F
:10152E000000000000000000000000D2EA000000F1
:10153E000000000000000000000000000090E65CCB
:10154E00E0FF74314FF000000000000000000000CA
:10155E0000000000000090E660E0FF74034FF00012
:10156E0000000000000000000000000000000090DD
:10157E00E6C0744FF090E671E4F075B4FF90E67239
:10158E00E0F0E5B675B6FF75B5FF0000000000008F
:10159E000000000000000000000090E60B7403F055
:1015AE00000000000000000000000000000000002D
:1015BE0090E6CEE4F0000000000000000000000005
:1015CE00000000000090E6CFE4F0000000000000F4
:1015DE000000000000000000000090E6D0E4F000E3
:1015EE00000000000000000000000000000000905D
:1015FE00E6D1E4F022C2E990E67AE4F022903C6B68
:10160E00740BF0E4A3F07440A3F0752A0175822ADE
:10161E001217285007E50B30E402D322C322AF8203
:10162E0090E6787480F0EF2F90E679F07F0090E6E8
:10163E0078E0FE20E012BF0A00500D900001C007B6
:10164E00120AB0D0070F80E690E678E0FF20E12482
:10165E0090E6787440F07F0090E678E0FE30E61277
:10166E00BF0A00500D900001C007120AB0D0070F3C
:10167E0080E6C322903C68E0FDA3E0FEA3E0FF7C81
:10168E0000C3EC950C506F8D828E838FF012275A0B
:10169E00FBA3AD82AE8390E679EBF07B0090E6780B
:1016AE00E0FA20E022BB0A00501D900001C007C0E6
:1016BE0006C005C004C003120AB0D003D004D00582
:1016CE00D006D0070B80D690E678E0FB20E1249080
:1016DE00E6787440F07B0090E678E0FA30E612BBD4
:1016EE000A00500D900001C003120AB0D0030B8007
:1016FE00E6C3220C808B90E6787440F07F0090E673
:10170E0078E0FE30E612BF0A00500D900001C007CF
:10171E00120AB0D0070F80E6D322AF82E52A7002FC
:10172E00C32290E678E0FE74804EF0EF2FFF90E635
:10173E007904F090E678E0FF30E0F890E678E0FF8C
:10174E0020E11390E678E0FF74404FF090E678E0E9
:10175E00FF20E6F8C3227401B52A1890E678E0FF60
:10176E0074204FF090E679E090E678E0FF30E0F8F4
:10177E0002180490E679E090E678E0FF30E0F89009
:10178E003C6BE0FDA3E0FEA3E0FF7C00AA2A7B00F9
:10179E00EA24FEFAEB34FFFB8C007900C3E89AE9E9
:1017AE0064808BF063F08095F0501E90E679E0FB3C
:1017BE008D828E838FF012273FA3AD82AE8390E68B
:1017CE0078E0FB30E0F80C80C390E678E0FC742003
:1017DE004CF090E679E0FC8D828E838FF012273FDD
:1017EE00903C6B74012DF0E43EA3F0EFA3F090E675
:1017FE0078E0FF30E0F890E678E0FF74404FF0902C
:10180E003C6BE0FDA3E0FEA3E0FF90E679E0FC8DEB
:10181E00828E838FF012273F90E678E0FF20E6F865
:10182E00D322AF82E52B7002C32290E6787480F04B
:10183E00EF2FFF90E679F090E678E0FE30E0F8903A
:10184E00E678E0FE20E11090E6787440F090E678BD
:10185E00E0FE20E6F8C32290E679E52AF090E678DD
:10186E00E0FE30E0F890E6787480F090E679EF04D0
:10187E00F090E678E0FF30E0F890E679E090E678D8
:10188E00E0FF30E0F8AF2B903C6EE0FCA3E0FDA350
:10189E00E0FEEF24FE5027BF020690E6787420F09B
:1018AE0090E679E0FB8C828D838EF012273FA3ACFD
:1018BE0082AD8390E678E0FB30E0F81F80D490E6AE
:1018CE00787440F090E679E0FF8C828D838EF01272
:1018DE00273F90E678E0FF20E6F8D322AF8290E62D
:1018EE0078E0FE20E6F8C2E9EF2FFF90E678E0FE02
:1018FE0074804EF090E679EFF090E678E0FE30E0FE
:10190E00F890E678E0FE74404EF090E678E0FE2027
:10191E00E6F890E678E0FE30E1D1D2E92285821138
:10192E00903C71E0FCA3E0FDA3E0FEE4F512F5139C
:10193E00A80DA90EC3E512950FE5139510400122CF
:10194E007F0090E678E0FB30E4097F018903903C4C
:10195E0074EBF08F030FEB2474F582E4343CF583C3
:10196E0088027B00EAF0EF04F50CEF2474F514E422
:10197E00343CF515AA12AF130512E4B51202051385
:10198E00EA2CFAEF3DFF8E038A828F838BF01227AB
:10199E005A851482851583F0903C687474F0743CFB
:1019AE00A3F0E4A3F0851182C006C005C004C001F7
:1019BE00C00012162CD000D001D004D005D00608DD
:1019CE00B800010902194275824022AF827E009052
:1019DE00E678E0FD30E4097E01AD17903C7AEDF03B
:1019EE00EE04F50CEE247AF582E4343CF583AD1664
:1019FE00EDF0903C68747AF0743CA3F0E4A3F08FA1
:101A0E0082C00712162CD00785182A903C77E0FC6E
:101A1E00A3E0FDA3E0FE903C6BECF0EDA3F0EEA393
:101A2E00F08F82021728903D7CE4F0903D7DF0759A
:101A3E00C83475CBFF75CAF3C2AC7598FE22AF825F
:101A4E00A299E433FEBE0108C2998F9975820122D4
:101A5E0075820022AF828F82C007121A4CE582D0A7
:101A6E000760F322E582FFC4540FFE53070F7D0279
:101A7E008D041DEC24FF502CEE24F650088E0474B9
:101A8E00372CFE80068E0474302CFE8E82C007C06A
:101A9E0006C005121A4CE582D005D006D00760EBC1
:101AAE008F0680CC22AD82AE83AFF07C00EC2DF998
:101ABE00E43EFA8F0389828A838BF012275AF9FB50
:101ACE0060208B82C007C006C005C004C003121A76
:101ADE004CE582D003D004D005D006D00760E30CCD
:101AEE0080CB22AD82AE83AFF07C00C3EC951A5052
:101AFE0047EC2DF9E43EFA8F0389828A838BF0122C
:101B0E00275AF582C007C006C005C004121A72D04B
:101B1E0004D005D006D007E51B601A851B82C007CE
:101B2E00C006C005C004121A4CE582D004D005D000
:101B3E0006D00760E60C80B322AD82AE83AFF0A272
:101B4E0098E433FCBC01118D828E838FF0E59912DF
:101B5E00273FC2987582012275820022AD82AE8324
:101B6E00AFF07C00EC2DF9E43EFA8F0389828A8374
:101B7E008BF012275AF9FB6043903D7CE0FAE0248B
:101B8E0001F0EA247CF582E4343CF583EBF0903DE1
:101B9E007CE0FB903D7DE0FAEBB5021D903D7CE0D4
:101BAE0014F0E0FB7A001BBBFF011AEB247CF582DC
:101BBE00EA343CF583742AF0220C80A822E582FFD9
:101BCE00C4540FFE53070F7D028D041DEC24FF50ED
:101BDE0057EE24F650088E0474372CFE80068E04C1
:101BEE0074302CFE903D7CE0FCE02401F0EC247C73
:101BFE00F582E4343CF583EEF0903D7CE0FC903DC4
:101C0E007DE0FBECB5031D903D7CE014F0E0FC7B29
:101C1E00001CBCFF011BEC247CF582EB343CF583ED
:101C2E00742AF0228F0680A122903D7CE0FF903D29
:101C3E007DE0FEEFB5060122903D7DE0247CF5822D
:101C4E00E4343CF583E0F582121A4CE5826007908D
:101C5E003D7DE02401F022227E657F1C90E606EF9A
:101C6E00F090E607EEF090E6057402F0021C659027
:101C7E00E6017416F090E6F574FFF0903E2CE090BD
:101C8E00E6F3F0903E2DE090E6C3F0903E2EE0900D
:101C9E00E6C1F0903E2FE090E6C2F0903E31E0902B
:101CAE00E6C0F0903E32E090E6F4F075AF077E8825
:101CBE007F3D8F068E9A7E887F3D7F008E9B759D21
:101CCE00E48F9E7F0090E67BE0FE90E67CF00FBFF7
:101CDE00800040F1903E08E090E6C6F0903E09E0AC
:101CEE0090E6C7F0903E0AE090E6C8F0903E0BE01A
:101CFE0090E6C9F0903E0CE090E6CAF0903E0DE002
:101D0E0090E6CBF0903E0EE090E6CCF0903E0FE0E9
:051D1E0090E6CDF0226B
:1027800008113F01010101070101030202020200D9
:102790000000000000000000000800000000003FF2
:1027A000010101010101010700000000000000001B
:1027B0000000000000000000000000000000003FDA
:1027C0000111933C140101070111030101000000F4
:1027D00000000000000000000008E92D0900003F93
:1027E000011193141D3901070111030101010000BA
:1027F000000000000000000000080909003F003F41
:1028000000000000000000000000000000000000C8
:1028100000000000000000000000000000000000B8
:0B2820000000000060000000164F00E8
:101D2300751C00000000000000000000000000001F
:101D33000000007E007F00E5BB20E7090EBE000126
:101D43000FEE4F70F20000000000000000000000E2
:101D5300000000000090E6F1E0F51C000000000028
:101D630000000000000000000000007E007F00E58E
:101D7300BB20E7090EBE00010FEE4F70F290E6F2B2
:101D8300E0F51C851C822290E680E0FF30E720907E
:101D93003C05E0FF24F94017EF2F901DA173800C41
:101DA300800D80098008800780048003222222227C
:101DB30090E6007412F00000000000000000000034
:101DC30000000000000090E601E0FF74404FF000C7
:101DD3000000000000000000000000000000009070
:101DE300E610E0FF747F5FF00000000000000000D9
:101DF300000000000000000090E611E0FF747F5F28
:101E0300F0000000000000000000000000000000DF
:101E13000090E613E0FF747F5FF000000000000015
:101E23000000000000000000000090E614E0FF74D2
:101E33007F5FF000000000000000000000000000D1
:101E430000000090E615E0FF747F5FF000000000E3
:101E530000000000000000000000000090E6127483
:101E6300E0F000000000000000000000000000009F
:101E7300000090E6837412F07432F000000000005A
:101E8300000000000000000000000090E618740C41
:101E9300F00000000000000000000000000000004F
:101EA3000090E6207404F000000000000000000031
:101EB3000000000000000090E621E4F000000000B4
:101EC30000000000000000000000000090E619740C
:101ED30004F000000000000000000000000000000B
:101EE300000090E61A7404F00000000000000000F7
:101EF300000000000000000090E61B7404F00000E6
:101F0300000000000000000000000000000022ADFF
:101F130082AE83AFF090E6B9E0FCBCB2005003029E
:101F23002725EC24335003022725EC244EFC240AF6
:101F330083F582EC241F83F583E4731E429E25CA36
:101F4300D6DD0205557474B0252525D7D7A6B90962
:101F53005911C8B2E86921212127212221232222F4
:101F6300221F1F2727272323201F2020232320204E
:101F7300230000000000000000000000000000003B
:101F83000090E6D17401F0000000000000000000A2
:101F93000000000000000075BB040000000000000A
:101FA3000000000000000000000002272590E6F575
:101FB30074FFF0022725903C00E0FC90E740F0001E
:101FC300000000000000000000000000000000907E
:101FD300E68AE4F0000000000000000000000000BA
:101FE3000000000090E68B7401F000000000000088
:101FF3000000000000000000000090E6A0E0FC7478
:10200300804CF002272590E60AE0FC90E740F000C0
:10201300000000000000000000000000000000902D
:10202300E68AE4F000000000000000000000000069
:102033000000000090E68B7401F000000000000037
:102043000000000000000000000090E6A0E0FC7427
:10205300804CF002272590E740740FF00000000049
:1020630000000000000000000000000090E68AE489
:10207300F00000000000000000000000000000006D
:102083000090E68B7401F0000000000000000000E7
:102093000000000000000090E6A0E0FC74804CF01B
:1020A30002272590E6BAE0FC903C01F00227259038
:1020B300E67AE0FC74FE5CF0000000000000000023
:1020C300000000000000000090E68AE4F000000039
:1020D3000000000000000000000000000090E68BFC
:1020E300E4F002272590E67AE0FC74014CF000004E
:1020F300000000000000000000000000000090E667
:102103008AE4F0000000000000000000000000006E
:1021130000000090E68BE4F002272590E6BCE090F7
:102123003C08F090E6BEE0FC903C4CF0750900D210
:10213300238D828E838FF0740112273F022725900F
:10214300E6BCE0903C09F090E6BEE0FC903C0AF06F
:10215300E0FC24FC5006903C0A7403F07508000070
:1021630000000000000000000000000000000090DC
:10217300E68AE4F000000000000000000000000018
:1021830000000000903C0AE0FC90E68BF08D828E0C
:10219300838FF0740112273F02272590E6BCE0905D
:1021A3003C08F090E6BEE0903C4CF090E6BAE0FCD0
:1021B300903C0BF0750901D2238D828E838FF074CE
:1021C3000112273F022725D2237509028D828E83B0
:1021D3008FF0740112273F02272590E6BAE0903C66
:1021E3004EF090E6BBE0FC903C4DF0D22275080522
:1021F300903C0AE4F08D828E838FF00412273F0215
:10220300272590E6BCE0903C09F090E6BEE0FC9008
:102213003C0AF07508030000000000000000000005
:1022230000000000000090E68AE4F00000000000D7
:102233000000000000000000000000903C0AE0FCE9
:1022430090E68BF08D828E838FF0740112273F020C
:10225300272590E6BCE0FC903C03F0D222903C0A98
:10226300E4F07508048D828E838FF012273F0227D6
:102273002590E740E4F000000000000000000000AB
:1022830000000000000090E7417411F0000000001E
:1022930000000000000000000000000090E68AE457
:1022A300F00000000000000000000000000000003B
:1022B3000090E68B7402F0000000000000000000B4
:1022C3000000000000000090E6A0E0FC74804CF0E9
:1022D30002272590E6BCE0903C4FF090E6BDE090ED
:1022E3003C50F090E6BEE0FC903C4CF0D2237509E4
:1022F300038D828E838FF0740112273F02272512EC
:102303001DB375820112141E120AF502272590E7E8
:10231300407407F00000000000000000000000000F
:102323000000000090E68AE4F000000000000000D6
:1023330000000000000000000090E68B7401F00034
:1023430000000000000000000000000000000090FA
:10235300E6A0E0FF74804FF09003E8120AB0D22B9E
:10236300120A2E02272590E6B5E0FF74FE5FF00007
:1023730000000000000000000000000000000090CA
:10238300E6BFE0FF90E68AF00000000000000000D6
:10239300000000000000000090E6BEE0FF90E68B26
:1023A300F00000000000000000000000000000003A
:1023B3000090E6BBE090E6B3F090E6BAE0FF90E66B
:1023C300B4F0022725903C007401F0903C01E0FF3B
:1023D30074014FF090E6BAE0FF7E0090E6BBE0FCAC
:1023E3007D00903D7FED4FF0EC4EA3F090E6BEE014
:1023F300FF7E0090E6BFE0FC7D00903D81ED4FF055
:10240300EC4EA3F090E6B8E0FFBFC00280030225C4
:102413003F903D81E0F5F0A3E045F07003022725EE
:1024230090E6A0E0FF20E1F8903D81E0FEA3E0FF0D
:10243300C3EE9440EF9400500A903D83EEF0EFA377
:10244300F08009903D837440F0E4A3F090E6B9E096
:10245300FFBFC345903D7FE0FEA3E0FF903D83E0D7
:10246300FCA3E0FD7A007B00C3EA9CEB9D5073C0A4
:1024730004C005EA2440F8EB34E7F98E048F05EA3B
:102483002CF582EB3DF583E0FD88828983F00ABA5F
:1024930000010BD005D00480CF903D83E0FEA3E084
:1024A300FF7C007D00C3EC9EED9F5014EC2440F5AF
:1024B30082ED34E7F58374CDF00CBC00E80D80E5C4
:1024C300903D7FE0FCA3E0903C777440F074E7A379
:1024D300F0E4A3F0751628F5178E188F198C821265
:1024E30019D90000000000000000000000000000F7
:1024F300000090E68AE4F000000000000000000005
:1025030000000000000000903D83E0FEA3E0FF9088
:10251300E68BEEF0903D7FE0FCA3E0FD903D7FEE87
:102523002CF0EF3DA3F0903D81E0FCA3E0FD903D56
:1025330081ECC39EF0ED9FA3F002241490E6B8E073
:10254300FFBF40028003022725903C02E0E07009B0
:102553001219D5E582903C02F0903D81E0F5F0A39D
:10256300E045F07003022725000000000000000092
:10257300000000000000000090E68AE4F000000084
:102583000000000000000000000000000090E68B47
:10259300E4F0000000000000000000000000000064
:1025A300000090E6A0E0FF20E1F890E68BE0FE7FDC
:1025B3000090E6B9E0FDBDC340903D7FE0FCA3E0A1
:1025C300FD7A007B00C3EA9EEB9F40030226FDC019
:1025D30006C0078C008D01EA28F8EB39F9EA24409C
:1025E300F582EB34E7F583E0FF88828983F00ABA4A
:1025F30000010BD007D00680CC903D85E4F0A3F01A
:10260300903D7FE0FCA3E0FD8C288D29903D85E083
:10261300F8A3E0F9C3E89EE99F40030226FD903C3E
:1026230002E0903D87F0903C02E0FBBB0102806139
:10263300E82CF526E93DF527903C02E0FB7A001BE8
:10264300BBFF011AE5265203E5275202EB4A601746
:102653008C03E82BFB903C02E0145203903C02E015
:10266300FA903D87C39BF0903D85E0F8A3E0F9EE37
:10267300C398F526EF99F527903D87E0FB7A00C3D1
:10268300E5269BE5279A50098E03903D87EBC39877
:10269300F0C004C005AA28903D85E0F9A3E0FB89BA
:1026A30000E82AFA903D87E0F88818751900E924B4
:1026B30040FCEB34E7FD903C77ECF0EDA3F0E4A3B2
:1026C300F075160AF5178A82C007C006C005C00454
:1026D300C003C001C0001219D9D000D001D003D06B
:1026E30004D005D006D0077D00903D85E829F0EDA4
:1026F3003BA3F0D005D00402260F903D7FE0FCA35E
:10270300E0FD903D7FEE2CF0EF3DA3F0903D81E0A6
:10271300FCA3E0FD903D81ECC39EF0ED9FA3F0028E
:08272300255CC322758200222F
:103F00001201000200000040B40417EA00000102A0
:103F100003010A06000200000040010009028700B8
:103F200001010080320904000001FF0000000705C4
:103F300082020002000904000101FF0000000705E1
:103F400002020002000904000202FF00000007054F
:103F500082020002000705060200020009040003B5
:103F600001FF00000007058201001401090400049C
:103F700001FF00000007050201001401090400050B
:103F800001FF00000007058201000401090400068A
:103F900002FF000000070582010004010705060179
:103FA0000014010009022E00010100803209040002
:103FB0000004FF000000070502024000000705049E
:103FC0000240000007058602400000070588024005
:103FD00000000403090410034500740061006C0034
:103FE00075006D0061000C034C005300360030007A
:083FF000300004030000000092
:10272B0090E682E044C0F090E681F0438701000020
:04273B000000002278
:030100000212DA0E
:0301040002131CC7
:0101080032C4
:03010C0002135487
:03011000021332A5
:0301140002136A69
:0101180032B4
:01011C0032B0
:030120000213A423
:0301240002138C37
:0101280032A4
:01012C0032A0
:01013000329C
:010134003298
:010138003294
:01013C003290
:01014000328C
:010144003288
:010148003284
:01014C003280
:01015000327C
:010154003278
:010158003274
:01015C003270
:01016000326C
:010164003268
:010168003264
:01016C003260
:01017000325C
:010174003258
:010178003254
:01017C003250
:01018000324C
:010184003248
:010188003244
:01018C003240
:01019000323C
:010194003238
:010198003234
:01019C003230
:0101A000322C
:0101A4003228
:0101A8003224
:0101AC003220
:0301B0000213BA7D
:0301B4000213E64D
:1000690075812B122727E582600302006679ABE9C7
:100079004400601B7A01902780788875923DE4934B
:10008900F2A308B800020592D9F4DAF27592FFE4F6
:1000990078FFF6D8FD0200C57800E84400600A79C7
:1000A9000075923CE4F309D8FC7888E84401600CB7
:0C00B9007902903C00E4F0A3D8FCD9FAD6
:10273F0020F71130F6138883A88220F509F6A883B5
:10274F007583002280FEF280F5F02220F71430F618
:10275F00148883A88220F507E6A88375830022E2F8
:07276F0080F7E49322E02251
:00000001FF
